:100000000C945D000C9485000C9485000C94850084
:100010000C9485000C9485000C9485000C9485004C
:100020000C9485000C9485000C9485000C9485003C
:100030000C9485000C9485000C9485000C9485002C
:100040000C945D030C9485000C94CD030C94A703D1
:100050000C9485000C9485000C9485000C9485000C
:100060000C9485000C9485000000000025002800F9
:100070002B0000000000240027002A0004040404D0
:100080000404040402020202020203030303030342
:10009000010204081020408001020408102001021F
:1000A00004081020000000080002010000030407FB
:1000B0000000000000000000FF0311241FBECFEF6E
:1000C000D8E0DEBFCDBF11E0A0E0B1E0E4EBFAE0A4
:1000D00002C005900D92A232B107D9F722E0A2E248
:1000E000B1E001C01D92A635B207E1F710E0CDE501
:1000F000D0E004C02197FE010E944D05CC35D10708
:10010000C9F70E945C040C9458050C94000090E020
:10011000FC01E057FF4F2491FC01E458FF4F84910C
:10012000882399F090E0880F991FFC01EE58FF4F4B
:10013000A591B491FC01E859FF4F859194918FB737
:10014000F894EC91E22BEC938FBF089590E0FC01C2
:10015000EC55FF4F3491FC01E057FF4F2491FC0117
:10016000E458FF4FE491EE2309F43BC0332339F107
:10017000333091F038F43130A9F0323001F584B5E4
:100180008F7D12C0373091F03830A1F03430B9F49F
:10019000809180008F7D03C0809180008F77809355
:1001A00080000DC084B58F7784BD09C08091B000F8
:1001B0008F7703C08091B0008F7D8093B000F0E016
:1001C000EE0FFF1FE859FF4FA591B4918FB7F89438
:1001D000EC91611103C020952E2301C02E2B2C938E
:1001E0008FBF08953FB7F89480912701909128011F
:1001F000A0912901B0912A0126B5A89B05C02F3FE7
:1002000019F00196A11DB11D3FBFBA2FA92F982F3C
:100210008827820F911DA11DB11DBC01CD0142E0B7
:10022000660F771F881F991F4A95D1F70895CF92BF
:10023000DF92EF92FF920F931F93CF93DF936C01A6
:100240007A018B01C0E0D0E0CE15DF0589F0D8013E
:100250006D918D01D601ED91FC910190F081E02D21
:10026000C6010995892B11F47E0102C02196ECCFBD
:10027000C701DF91CF911F910F91FF90EF90DF9019
:10028000CF900895FC01918D828D981761F0828D39
:10029000DF01A80FB11D5D968C91928D9F5F9F73BA
:1002A000928F90E008958FEF9FEF0895FC01918D5C
:1002B000828D981731F0828DE80FF11D858D90E0C9
:1002C00008958FEF9FEF0895FC01918D228D892F66
:1002D00090E0805C9F4F821B91098F73992708954E
:1002E0008BE291E00E94640121E0892B09F420E077
:1002F000822F0895FC01848DDF01A80FB11DA35A40
:10030000BF4F2C91848D90E001968F739927848F35
:10031000A689B7892C93A089B1898C9180648C932C
:10032000938D848D981306C00288F389E02D808117
:100330008F7D80830895EF92FF920F931F93CF9349
:10034000DF93EC0181E0888F9B8D8C8D981305C025
:10035000E889F989808185FD24C0F62E0B8D10E097
:100360000F5F1F4F0F731127E02E8C8DE8120CC00A
:100370000FB607FCFACFE889F989808185FFF5CFB0
:10038000CE010E947A01F1CF8B8DFE01E80FF11DA5
:10039000E35AFF4FF0820B8FEA89FB8980818062EC
:1003A00007C0EE89FF896083E889F98980818064CC
:1003B000808381E090E0DF91CF911F910F91FF90BA
:1003C000EF900895CF93DF93EC01888D8823C9F0D7
:1003D000EA89FB89808185FD05C0A889B9898C914E
:1003E00086FD0FC00FB607FCF5CF808185FFF2CFE9
:1003F000A889B9898C9185FFEDCFCE010E947A0141
:10040000E7CFDF91CF91089580E090E0892B29F02C
:100410000E94700181110C9400000895009769F00A
:10042000FC0101900020E9F73197AF01481B590BFF
:10043000BC018BE291E00C94170180E090E00895FC
:100440008F929F92AF92BF92CF92DF92EF92FF92E4
:100450000F931F93CF93DF93CDB7DEB7A1970FB65E
:10046000F894DEBF0FBECDBF6C01990FEE08FF08F8
:10047000F7FE31C0E0912B01F0912C010190F08149
:10048000E02D6DE28BE291E009958C012227332764
:10049000A9012C193D094E095F0919A2CE018196C7
:1004A0007C019AE0892E912CA12CB12CCA01B901B2
:1004B000A50194010E942B05605DF70162937F0105
:1004C000211531054105510589F7CF010E940E0222
:1004D000080F191F1EC0A701960119A28E010F5DFA
:1004E0001F4F8AE0C82ED12CE12CF12CCA01B90192
:1004F000A70196010E942B05605DF80162938F01B0
:10050000211531054105510589F7CF010E940E02E1
:100510008C0180E191E00E940E02800F911FA19654
:100520000FB6F894DEBF0FBECDBFDF91CF911F9104
:100530000F91FF90EF90DF90CF90BF90AF909F9082
:100540008F9008950E945305AF92BF92CF92DF9291
:10055000EF92FF920F931F93CF93DF938C018BE267
:1005600091E00E946401680125E4C20ED11CF601ED
:1005700091838083181619060CF094C00E94200203
:100580007801F4E0EF0EF11CC0E0D0E05701F60175
:1005900080819181C817D9079CF48BE291E00E9479
:1005A0004201F70181937F01803221F4C00FD11FF6
:1005B0001C8206C08A30D1F38D30C1F32196E7CF7B
:1005C000C5010E940505F801938382830E942002E1
:1005D000F801C281D38100811181802F0E948700A0
:1005E000209709F447C0CF3FD10509F445C0F80171
:1005F000FF27EC55FF4FE491E330F9F048F4E13088
:10060000B9F0E230A1F584B5806284BDC8BD38C0C0
:10061000E730E9F0E83019F1E43049F580918000E5
:10062000806280938000D0938B00C0938A0028C0A2
:1006300084B5806884BDC7BD23C080918000806878
:1006400080938000D0938900C093880019C0809166
:10065000B00080688093B000C093B30011C0809157
:10066000B00080628093B000C093B40009C0C0386D
:10067000D10514F460E001C061E0802F0E94A60063
:1006800083E191E00E940E0280E191E0DF91CF9141
:100690001F910F91FF90EF90DF90CF90BF90AF90A0
:1006A0000C940E02DF91CF911F910F91FF90EF906C
:1006B000DF90CF90BF90AF9008951F920F920FB62A
:1006C0000F9211242F933F938F939F93AF93BF93D8
:1006D0008091230190912401A0912501B0912601E0
:1006E0003091220123E0230F2D3720F40196A11D24
:1006F000B11D05C026E8230F0296A11DB11D209350
:1007000022018093230190932401A0932501B093AB
:1007100026018091270190912801A0912901B09193
:100720002A010196A11DB11D8093270190932801F4
:10073000A0932901B0932A01BF91AF919F918F910E
:100740003F912F910F900FBE0F901F9018951F9201
:100750000F920FB60F9211242F933F934F935F93F5
:100760006F937F938F939F93AF93BF93EF93FF9379
:100770008BE291E00E947A01FF91EF91BF91AF91DE
:100780009F918F917F916F915F914F913F912F91A9
:100790000F900FBE0F901F9018951F920F920FB6DB
:1007A0000F9211242F938F939F93EF93FF93E091D8
:1007B0003B01F0913C018081E0914101F0914201C7
:1007C00082FD12C09081809144018F5F8F732091D0
:1007D0004501821751F0E0914401F0E0E55DFE4FE4
:1007E000958F8093440101C08081FF91EF919F918B
:1007F0008F912F910F900FBE0F901F901895CF9350
:10080000DF93EBE2F1E01382128288EE93E0A0E046
:10081000B0E084839583A683B78384E091E09183DD
:10082000808385EC90E09587848784EC90E09787BF
:10083000868780EC90E0918B808B81EC90E0938BAD
:10084000828B82EC90E0958B848B86EC90E0978B8A
:10085000868B118E128E138E148ECFE0D2E089E03B
:1008600090E0998388830E9487001B821A8289E026
:100870000E94870060E089E00E94A6001C8210921E
:10088000550210925402C8ECD1E08AE090E09983BE
:1008900088830E9487001B821A828AE00E94870058
:1008A00060E08AE00E94A6001C8210920E02109264
:1008B0000D02DF91CF910895789484B5826084BD54
:1008C00084B5816084BD85B5826085BD85B5816054
:1008D00085BD80916E00816080936E0010928100D2
:1008E000809181008260809381008091810081608D
:1008F000809381008091800081608093800080914E
:10090000B10084608093B1008091B00081608093D9
:10091000B00080917A00846080937A0080917A00A0
:10092000826080937A0080917A00816080937A005F
:1009300080917A00806880937A001092C100E091E3
:100940003B01F0913C0182E08083E0913701F0911E
:1009500038011082E0913901F0913A0180E1808301
:1009600010924301E0913F01F091400186E08083C5
:10097000E0913D01F0913E01808180618083E091B2
:100980003D01F0913E01808188608083E0913D01CE
:10099000F0913E01808180688083E0913D01F0917B
:1009A0003E0180818F7D80830E94F2004B015C01BB
:1009B00086E9C82ED12CE12CF12C0E94F200DC013A
:1009C000CB0188199909AA09BB09883E9340A10562
:1009D000B10558F021E0C21AD108E108F10888EE0B
:1009E000880E83E0981EA11CB11CC114D104E1043F
:1009F000F10419F78FE092E00E94A40288EC91E0E4
:100A00000E94A4020E940402CFCFFC0188279927EC
:100A1000E89421912032E9F3293010F02E30C8F308
:100A20002B3241F02D3239F4689404C00E94230522
:100A3000820F911D219120532A30C0F31EF490950E
:100A400081959F4F08957AE0979F902D879F802DE5
:100A5000910D11240895A1E21A2EAA1BBB1BFD01C2
:100A60000DC0AA1FBB1FEE1FFF1FA217B307E4078D
:100A7000F50720F0A21BB30BE40BF50B661F771FE5
:100A8000881F991F1A9469F76095709580959095C5
:100A90009B01AC01BD01CF010895EE0FFF1F059032
:100AA000F491E02D099481E090E0F8940C945805BD
:040AB000F894FFCFE8
:100AB400000000009B011701640142015601E2019C
:100AC4000D0A00506F776572206368616E67656414
:020AD4002100FF
:00000001FF
