:100000000C945D000C9485000C9485000C94850084
:100010000C9485000C9485000C9485000C9485004C
:100020000C9485000C9485000C9485000C9485003C
:100030000C9485000C9485000C9485000C9485002C
:100040000C94B5030C9485000C9425040C94FF03C8
:100050000C9485000C9485000C9485000C9485000C
:100060000C9485000C9485000000000025002800F9
:100070002B0000000000240027002A0004040404D0
:100080000404040402020202020203030303030342
:10009000010204081020408001020408102001021F
:1000A00004081020000000080002010000030407FB
:1000B0000000000000000000570411241FBECFEF15
:1000C000D8E0DEBFCDBF11E0A0E0B1E0ECE1FBE0A5
:1000D00002C005900D92A233B107D9F722E0A2E346
:1000E000B1E001C01D92A636B207E1F710E0CDE500
:1000F000D0E004C02197FE010E948105CC35D107D4
:10010000C9F70E94B4040C948C050C94000090E094
:10011000FC01E057FF4F2491FC01E458FF4F84910C
:10012000882399F090E0880F991FFC01EE58FF4F4B
:10013000A591B491FC01E859FF4F859194918FB737
:10014000F894EC91E22BEC938FBF089590E0FC01C2
:10015000EC55FF4F3491FC01E057FF4F2491FC0117
:10016000E458FF4FE491EE2309F43BC0332339F107
:10017000333091F038F43130A9F0323001F584B5E4
:100180008F7D12C0373091F03830A1F03430B9F49F
:10019000809180008F7D03C0809180008F77809355
:1001A00080000DC084B58F7784BD09C08091B000F8
:1001B0008F7703C08091B0008F7D8093B000F0E016
:1001C000EE0FFF1FE859FF4FA591B4918FB7F89438
:1001D000EC91611103C020952E2301C02E2B2C938E
:1001E0008FBF08953FB7F8948091370190913801FF
:1001F000A0913901B0913A0126B5A89B05C02F3FC7
:1002000019F00196A11DB11D3FBFBA2FA92F982F3C
:100210008827820F911DA11DB11DBC01CD0142E0B7
:10022000660F771F881F991F4A95D1F708958F92FF
:100230009F92AF92BF92CF92DF92EF92FF920E9475
:10024000F2004B015C0185E0C82ED12CE12CF12C91
:100250000E94F200DC01CB0188199909AA09BB09A7
:10026000883E9340A105B10558F021E0C21AD1089B
:10027000E108F10888EE880E83E0981EA11CB11CED
:10028000C114D104E104F10419F7FF90EF90DF905D
:10029000CF90BF90AF909F908F900895CF92DF92B4
:1002A000EF92FF920F931F93CF93DF936C017A012C
:1002B0008B01C0E0D0E0CE15DF0589F0D8016D914B
:1002C0008D01D601ED91FC910190F081E02DC601E8
:1002D0000995892B11F47E0102C02196ECCFC7014C
:1002E000DF91CF911F910F91FF90EF90DF90CF9012
:1002F0000895FC01918D828D981761F0828DDF0148
:10030000A80FB11D5D968C91928D9F5F9F73928F08
:1003100090E008958FEF9FEF0895FC01918D828DFD
:10032000981731F0828DE80FF11D858D90E00895CA
:100330008FEF9FEF0895FC01918D228D892F90E022
:10034000805C9F4F821B91098F73992708958BE3DF
:1003500091E00E949B0121E0892B09F420E0822F8B
:100360000895FC01848DDF01A80FB11DA35ABF4F72
:100370002C91848D90E001968F739927848FA689A4
:10038000B7892C93A089B1898C9180648C93938DCB
:10039000848D981306C00288F389E02D80818F7DBB
:1003A00080830895EF92FF920F931F93CF93DF9373
:1003B000EC0181E0888F9B8D8C8D981305C0E889B6
:1003C000F989808185FD24C0F62E0B8D10E00F5F2A
:1003D0001F4F0F731127E02E8C8DE8120CC00FB643
:1003E00007FCFACFE889F989808185FFF5CFCE0136
:1003F0000E94B101F1CF8B8DFE01E80FF11DE35A90
:10040000FF4FF0820B8FEA89FB898081806207C0F1
:10041000EE89FF896083E889F9898081806480831F
:1004200081E090E0DF91CF911F910F91FF90EF90CD
:100430000895CF93DF93EC01888D8823C9F0EA8972
:10044000FB89808185FD05C0A889B9898C9186FDCD
:100450000FC00FB607FCF5CF808185FFF2CFA889CA
:10046000B9898C9185FFEDCFCE010E94B101E7CF14
:10047000DF91CF91089580E090E0892B29F00E94D0
:10048000A70181110C9400000895009769F0FC0108
:1004900001900020E9F73197AF01481B590BBC01CF
:1004A0008BE391E00C944E0180E090E008958F92F0
:1004B0009F92AF92BF920F931F93CF93DF93CDB7CD
:1004C000DEB7A1970FB6F894DEBF0FBECDBF19A25D
:1004D000423008F44AE08E010F5D1F4F842E912CAC
:1004E000A12CB12CA50194010E945F05E62FB90152
:1004F000CA0101501109EA3014F4E05D01C0E95C61
:10050000D801EC93232B242B252B61F7C8010E94E3
:100510004502A1960FB6F894DEBF0FBECDBFDF91A6
:10052000CF911F910F91BF90AF909F908F900895A2
:10053000CF92DF92EF92FF92CF93DF936B017C011A
:10054000E0913B01F0913C010190F081E02D6DE2E2
:100550008BE391E00995EC0166277727CB016C19B5
:100560007D098E099F094AE00E9457028C0F9D1F4A
:10057000DF91CF91FF90EF90DF90CF900895CF93D0
:10058000DF93BC01990F880B990B97FF03C00E9462
:10059000980203C04AE00E945702EC0180E191E01A
:1005A0000E9445028C0F9D1FDF91CF9108950E94FC
:1005B0008705AF92BF92CF92DF92EF92FF920F9397
:1005C0001F93CF93DF938C018BE391E00E949B01FB
:1005D000780125E4E20EF11CF7019183808318165F
:1005E00019060CF0B7C00E941701F70180819181B4
:1005F0000E94BF028BE391E00E949B01F70191836F
:10060000808383E191E00E94450280E191E00E94B5
:100610004502F70160817181072E000C880B990B50
:1006200097FF03C00E94980203C04AE00E9457024D
:100630006801F4E0CF0ED11CC0E0D0E05601F70114
:1006400080819181C817D9079CF48BE391E00E94C7
:100650007901F60181936F01803221F4C00FD11F1F
:100660001C8206C08A30D1F38D30C1F32196E7CFCA
:10067000C5010E943905F801938382830E94BF025D
:10068000F801C281D38100811181802F0E948700EF
:10069000209709F447C0CF3FD10509F445C0F801C0
:1006A000FF27EC55FF4FE491E330F9F048F4E130D7
:1006B000B9F0E230A1F584B5806284BDC8BD38C010
:1006C000E730E9F0E83019F1E43049F58091800035
:1006D000806280938000D0938B00C0938A0028C0F2
:1006E00084B5806884BDC7BD23C0809180008068C8
:1006F00080938000D0938900C093880019C08091B6
:10070000B00080688093B000C093B30011C08091A6
:10071000B00080628093B000C093B40009C0C038BC
:10072000D10514F460E001C061E0802F0E94A600B2
:1007300083E291E00E94450280E191E0DF91CF9158
:100740001F910F91FF90EF90DF90CF90BF90AF90EF
:100750000C944502DF91CF911F910F91FF90EF9084
:10076000DF90CF90BF90AF9008951F920F920FB679
:100770000F9211242F933F938F939F93AF93BF9327
:100780008091330190913401A0913501B0913601EF
:100790003091320123E0230F2D3720F40196A11D63
:1007A000B11D05C026E8230F0296A11DB11D20939F
:1007B00032018093330190933401A0933501B093BB
:1007C00036018091370190913801A0913901B091A3
:1007D0003A010196A11DB11D809337019093380114
:1007E000A0933901B0933A01BF91AF919F918F913E
:1007F0003F912F910F900FBE0F901F9018951F9251
:100800000F920FB60F9211242F933F934F935F9344
:100810006F937F938F939F93AF93BF93EF93FF93C8
:100820008BE391E00E94B101FF91EF91BF91AF91F5
:100830009F918F917F916F915F914F913F912F91F8
:100840000F900FBE0F901F9018951F920F920FB62A
:100850000F9211242F938F939F93EF93FF93E09127
:100860004B01F0914C018081E0915101F0915201D6
:1008700082FD12C09081809154018F5F8F7320910F
:100880005501821751F0E0915401F0E0E55CFE4F14
:10089000958F8093540101C08081FF91EF919F91CA
:1008A0008F912F910F900FBE0F901F901895CF939F
:1008B000DF93EBE3F1E01382128288EE93E0A0E095
:1008C000B0E084839583A683B78384E091E091832D
:1008D000808385EC90E09587848784EC90E097870F
:1008E000868780EC90E0918B808B81EC90E0938BFD
:1008F000828B82EC90E0958B848B86EC90E0978BDA
:10090000868B118E128E138E148ECFE1D2E089E089
:1009100090E0998388830E9487001B821A8289E075
:100920000E94870060E089E00E94A6001C8210926D
:10093000650210926402C8EDD1E08AE090E09983EC
:1009400088830E9487001B821A828AE00E948700A7
:1009500060E08AE00E94A6001C8210921E021092A3
:100960001D02DF91CF910895789484B5826084BD93
:1009700084B5816084BD85B5826085BD85B58160A3
:1009800085BD80916E00816080936E001092810021
:1009900080918100826080938100809181008160DC
:1009A000809381008091800081608093800080919D
:1009B000B10084608093B1008091B0008160809329
:1009C000B00080917A00846080937A0080917A00F0
:1009D000826080937A0080917A00816080937A00AF
:1009E00080917A00806880937A001092C100E09133
:1009F0004B01F0914C0182E08083E0914701F0913E
:100A000048011082E0914901F0914A0180E1808320
:100A100010925301E0914F01F091500186E08083E4
:100A2000E0914D01F0914E01808180618083E091E1
:100A30004D01F0914E01808188608083E0914D01ED
:100A4000F0914E01808180688083E0914D01F091AA
:100A50004E0180818F7D80830E9417018FE192E09B
:100A60000E94D90288ED91E00E94D9020E943B02C7
:100A7000F3CFFC0188279927E89421912032E9F3EC
:100A8000293010F02E30C8F32B3241F02D3239F4DA
:100A9000689404C00E945705820F911D2191205334
:100AA0002A30C0F31EF4909581959F4F08957AE007
:100AB000979F902D879F802D910D11240895A1E27D
:100AC0001A2EAA1BBB1BFD010DC0AA1FBB1FEE1FC8
:100AD000FF1FA217B307E407F50720F0A21BB30B13
:100AE000E40BF50B661F771F881F991F1A9469F78F
:100AF00060957095809590959B01AC01BD01CF01EB
:100B00000895EE0FFF1F0590F491E02D099481E008
:0C0B100090E0F8940C948C05F894FFCF52
:100B1C0000000000D2014E019B0179018D011902E8
:100B2C000D0A0055706461746564206C656C6E20F0
:100B3C003D2000506F776572206368616E67656455
:020B4C00210086
:00000001FF
