:100000000C945D000C9485000C9485000C94850084
:100010000C9485000C9485000C9485000C9485004C
:100020000C9485000C9485000C9485000C9485003C
:100030000C9485000C9485000C9485000C9485002C
:100040000C9405030C9485000C9475030C944F03D9
:100050000C9485000C9485000C9485000C9485000C
:100060000C9485000C9485000000000025002800F9
:100070002B0000000000240027002A0004040404D0
:100080000404040402020202020203030303030342
:10009000010204081020408001020408102001021F
:1000A00004081020000000080002010000030407FB
:1000B0000000000000000000A70311241FBECFEFC6
:1000C000D8E0DEBFCDBF11E0A0E0B1E0E4E3FAE0AC
:1000D00002C005900D92A031B107D9F722E0A0E14E
:1000E000B1E001C01D92A034B207E1F710E0CDE508
:1000F000D0E004C02197FE010E940D05CC35D10748
:10010000C9F70E94FF030C9418050C94000090E0BE
:10011000FC01E057FF4F2491FC01E458FF4F84910C
:10012000882399F090E0880F991FFC01EE58FF4F4B
:10013000A591B491FC01E859FF4F859194918FB737
:10014000F894EC91E22BEC938FBF089590E0FC01C2
:10015000EC55FF4F3491FC01E057FF4F2491FC0117
:10016000E458FF4FE491EE2309F43BC0332339F107
:10017000333091F038F43130A9F0323001F584B5E4
:100180008F7D12C0373091F03830A1F03430B9F49F
:10019000809180008F7D03C0809180008F77809355
:1001A00080000DC084B58F7784BD09C08091B000F8
:1001B0008F7703C08091B0008F7D8093B000F0E016
:1001C000EE0FFF1FE859FF4FA591B4918FB7F89438
:1001D000EC91611103C020952E2301C02E2B2C938E
:1001E0008FBF08953FB7F894809115019091160143
:1001F000A0911701B091180126B5A89B05C02F3F0B
:1002000019F00196A11DB11D3FBFBA2FA92F982F3C
:100210008827820F911DA11DB11DBC01CD0142E0B7
:10022000660F771F881F991F4A95D1F70895CF92BF
:10023000DF92EF92FF920F931F93CF93DF936C01A6
:100240007A018B01C0E0D0E0CE15DF0589F0D8013E
:100250006D918D01D601ED91FC910190F081E02D21
:10026000C6010995892B11F47E0102C02196ECCFBD
:10027000C701DF91CF911F910F91FF90EF90DF9019
:10028000CF900895FC01918D828D981761F0828D39
:10029000DF01A80FB11D5D968C91928D9F5F9F73BA
:1002A000928F90E008958FEF9FEF0895FC01918D5C
:1002B000828D981731F0828DE80FF11D858D90E0C9
:1002C00008958FEF9FEF0895FC01918D228D892F66
:1002D00090E0805C9F4F821B91098F73992708954E
:1002E00089E191E00E94640121E0892B09F420E07A
:1002F000822F0895FC01848DDF01A80FB11DA35A40
:10030000BF4F2C91848D90E001968F739927848F35
:10031000A689B7892C93A089B1898C9180648C932C
:10032000938D848D981306C00288F389E02D808117
:100330008F7D80830895EF92FF920F931F93CF9349
:10034000DF93EC0181E0888F9B8D8C8D981305C025
:10035000E889F989808185FD24C0F62E0B8D10E097
:100360000F5F1F4F0F731127E02E8C8DE8120CC00A
:100370000FB607FCFACFE889F989808185FFF5CFB0
:10038000CE010E947A01F1CF8B8DFE01E80FF11DA5
:10039000E35AFF4FF0820B8FEA89FB8980818062EC
:1003A00007C0EE89FF896083E889F98980818064CC
:1003B000808381E090E0DF91CF911F910F91FF90BA
:1003C000EF900895CF93DF93EC01888D8823C9F0D7
:1003D000EA89FB89808185FD05C0A889B9898C914E
:1003E00086FD0FC00FB607FCF5CF808185FFF2CFE9
:1003F000A889B9898C9185FFEDCFCE010E947A0141
:10040000E7CFDF91CF91089580E090E0892B29F02C
:100410000E94700181110C94000008950E94130540
:100420004F925F926F927F928F929F92AF92BF9204
:10043000EF92FF920F931F93CF93DF9300D000D0E2
:10044000CDB7DEB77C018C010C5F1F4F0E94F2001C
:100450002B013C0185E0882E912CA12CB12C0E940F
:10046000F200DC01CB0184199509A609B709883E81
:100470009340A105B10558F021E0821A9108A10826
:10048000B10888EE480E83E0581E611C711C81146F
:100490009104A104B10419F789E191E00E9464017B
:1004A0004C015801612C712C681479044CF489E1D9
:1004B00091E00E944201F50181935F01803249F58C
:1004C000F301E00FF11F1082C8010E9490042FEF8A
:1004D00030E0DC010E94060528EE33E040E050E009
:1004E0000E94B6048901F70133832283E080F18002
:1004F0008E2D29833A834B835C830E948700298158
:100500003A814B815C81211531054105510549F442
:1005100051C08A30A9F28D3099F2FFEF6F1A7F0A2D
:10052000C3CF2F3F31054105510509F445C0F701FF
:10053000FF27EC55FF4FE491E330F9F048F4E13048
:10054000B9F0E230A1F584B5806284BD28BD4AC00F
:10055000E730E9F0E83019F1E43049F580918000A6
:1005600080628093800030938B0020938A003AC091
:1005700084B5806884BD27BD35C0809180008068C7
:100580008093800030938900209388002BC0809155
:10059000B00080688093B0002093B30023C08091A6
:1005A000B00080628093B0002093B4001BC000387C
:1005B000110514F460E001C061E08E2D0F900F90E2
:1005C0000F900F90DF91CF911F910F91FF90EF90BF
:1005D000BF90AF909F908F907F906F905F904F9063
:1005E0000C94A6000F900F900F900F90DF91CF9179
:1005F0001F910F91FF90EF90BF90AF909F908F90C1
:100600007F906F905F904F9008951F920F920FB65A
:100610000F9211242F933F938F939F93AF93BF9388
:100620008091110190911201A0911301B0911401D8
:100630003091100123E0230F2D3720F40196A11DE6
:10064000B11D05C026E8230F0296A11DB11D209300
:1006500010018093110190931201A0931301B093A4
:1006600014018091150190911601A0911701B0918C
:1006700018010196A11DB11D8093150190931601DB
:10068000A0931701B0931801BF91AF919F918F91E3
:100690003F912F910F900FBE0F901F9018951F92B2
:1006A0000F920FB60F9211242F933F934F935F93A6
:1006B0006F937F938F939F93AF93BF93EF93FF932A
:1006C00089E191E00E947A01FF91EF91BF91AF9192
:1006D0009F918F917F916F915F914F913F912F915A
:1006E0000F900FBE0F901F9018951F920F920FB68C
:1006F0000F9211242F938F939F93EF93FF93E09189
:100700002901F0912A018081E0912F01F0913001BF
:1007100082FD12C09081809132018F5F8F73209192
:100720003301821751F0E0913201F0E0E75EFE4FB5
:10073000958F8093320101C08081FF91EF919F914D
:100740008F912F910F900FBE0F901F901895CF9300
:10075000DF93E9E1F1E01382128288EE93E0A0E0FA
:10076000B0E084839583A683B78384E091E091838E
:10077000808385EC90E09587848784EC90E0978770
:10078000868780EC90E0918B808B81EC90E0938B5E
:10079000828B82EC90E0958B848B86EC90E0978B3B
:1007A000868B118E128E138E148EC6EBD1E089E0EB
:1007B00090E0998388830E9487001B821A8289E0D7
:1007C0000E94870060E089E00E94A6001C828AE007
:1007D00090E09093FC018093FB010E9487001092AF
:1007E000FE011092FD018AE00E94870060E08AE02D
:1007F0000E94A6001092FF01DF91CF910895789496
:1008000084B5826084BD84B5816084BD85B5826015
:1008100085BD85B5816085BD80916E0081608093C6
:100820006E0010928100809181008260809381002F
:10083000809181008160809381008091800081603F
:10084000809380008091B10084608093B10080919A
:10085000B00081608093B00080917A0084608093C2
:100860007A0080917A00826080937A0080917A0089
:10087000816080937A0080917A00806880937A000A
:100880001092C100E0912901F0912A0182E0808359
:10089000E0912501F09126011082E0912701F0916D
:1008A000280180E1808310923101E0912D01F091C7
:1008B0002E0186E08083E0912B01F0912C01808154
:1008C00080618083E0912B01F0912C018081886010
:1008D0008083E0912B01F0912C01808180688083DE
:1008E000E0912B01F0912C0180818F7D808389E143
:1008F00091E00E9464011816190624F486EB91E039
:100900000E94100289E191E00E9464011816190604
:1009100024F48BEF91E00E9410020E940402E7CFC2
:10092000FC0188279927E89421912032E9F32930A6
:1009300010F02E30C8F32B3241F02D3239F4689488
:1009400004C00E94AE04820F911D219120532A30D1
:10095000C0F31EF4909581959F4F08957AE0979F7C
:10096000902D879F802D910D11240895052E97FBC2
:100970001EF400940E94CD0457FD07D00E94D504B8
:1009800007FC03D04EF40C94CD045095409530955F
:1009900021953F4F4F4F5F4F0895909580957095EB
:1009A00061957F4F8F4F9F4F0895A1E21A2EAA1B8A
:1009B000BB1BFD010DC0AA1FBB1FEE1FFF1FA2170F
:1009C000B307E407F50720F0A21BB30BE40BF50B0C
:1009D000661F771F881F991F1A9469F76095709595
:1009E000809590959B01AC01BD01CF010895A29F18
:1009F000B001B39FC001A39F700D811D1124911DF3
:100A0000B29F700D811D1124911D08950E94F7045D
:100A1000B7FF0895821B930B0895EE0FFF1F0590FB
:100A2000F491E02D099481E090E0F8940C9418057D
:040A3000F894FFCF68
:100A3400000000009B011701640142015601E2011C
:00000001FF
