:100000000C94D8000C9400010C9400010C94000195
:100010000C9400010C9400010C9400010C9400015C
:100020000C9400010C9400010C9400010C9400014C
:100030000C9400010C9400010C9400010C9400013C
:100040000C946B040C9400010C94DB040C94B50428
:100050000C9400010C9400010C9400010C9400011C
:100060000C9400010C940001005EBCE2613FDD8352
:10007000C29C7E20A3FD1F419DC3217FFCA2401E88
:100080005F01E3BD3E6082DC237D9FC1421CFEA078
:10009000E1BF5D0380DE3C62BEE0025CDF81633D68
:1000A0007C22C09E1D43A1FF4618FAA427799BC558
:1000B00084DA3866E5BB5907DB856739BAE4065848
:1000C0001947A5FB7826C49A653BD987045AB8E638
:1000D000A7F91B45C6987A24F8A6441A99C7257B28
:1000E0003A6486D85B05E7B98CD2306EEDB3510F18
:1000F0004E10F2AC2F7193CD114FADF3702ECC9208
:10010000D38D6F31B2EC0E50AFF1134DCE90722CF7
:100110006D33D18F0C52B0EE326C8ED0530DEFB1E7
:10012000F0AE4C1291CF2D73CA947628ABF51749D7
:100130000856B4EA6937D58B5709EBB536688AD4C7
:1001400095CB2977F4AA4816E9B7550B88D6346AB7
:100150002B7597C94A14F6A8742AC896154BA9F7A7
:10016000B6E80A54D7896B35000000002500280046
:100170002B0000000000240027002A0000000000DF
:1001800023002600290004040404040404040202D9
:100190000202020203030303030301020408102006
:1001A00040800102040810200102040810200D05FF
:1001B00011241FBECFEFD8E0DEBFCDBF11E0A0E01D
:1001C000B1E0E8E6F3E102C005900D92AC3DB10765
:1001D000D9F722E0ACEDB1E001C01D92A039B20721
:1001E000E1F710E0C8EDD0E004C02197FE010E94C5
:1001F000A709C73DD107C9F70E9494050C94B2091D
:100200000C94000080918202E0918302F0918402BC
:10021000F8949181982B91832281982F909529238E
:100220002283A7E0B0E01197F1F721819223918317
:10023000A3E2B0E01197F1F790817894EFECF0E051
:100240003197F1F7982381E009F480E008959091C7
:100250008202E0918302F0918402392F309580FF71
:1002600013C0F8942281832F822382838181892B7A
:100270008183A3E2B0E01197F1F78281982B9283FA
:10028000789487ED90E012C0F8942281832F822326
:1002900082838181892B8183AFEFB0E01197F1F7E1
:1002A0008281982B928378948FE090E00197F1F708
:1002B00008950F931F93CF93DF93082FC8E0D0E0EA
:1002C00011E081E0912F902309F480E00E94270142
:1002D000110F2197B1F7F894E0918302F091840215
:1002E000918180918202809598239183E09183028D
:1002F000F09184029281892382837894DF91CF9157
:100300001F910F910895EF92FF920F931F93CF9338
:10031000DF931F92CDB7DEB7182F85E599830E9432
:100320005901E12E9981F92E8701085F1F4FF701CE
:1003300081917F010E945901E016F106C1F70F90EB
:10034000DF91CF911F910F91FF90EF9008959091C1
:100350008202E0918302F0918402F8948181292F36
:1003600020958223818378948DE743E050E081508B
:1003700021F1DA011197F1F730813923C1F3F894B3
:100380008281822382838181892B81837894ABE768
:10039000B7E01197F1F7F894818128232183A3E135
:1003A000B1E01197F1F78081982381E009F080E0B6
:1003B0007894E3E6F6E03197F1F708953FB7F894C3
:1003C0008091E1019091E201A091E301B091E401FB
:1003D00026B5A89B05C02F3F19F00196A11DB11DA0
:1003E0003FBFBA2FA92F982F8827820F911DA11DDB
:1003F000B11DBC01CD0142E0660F771F881F991F18
:100400004A95D1F708958F929F92AF92BF92CF9263
:10041000DF92EF92FF926B017C010E94DE014B01A3
:100420005C01C114D104E104F104F1F00E94DE0189
:10043000DC01CB0188199909AA09BB09883E9340C0
:10044000A105B10570F321E0C21AD108E108F10855
:1004500088EE880E83E0981EA11CB11CC114D10443
:10046000E104F10419F7DDCFFF90EF90DF90CF901A
:10047000BF90AF909F908F900895CF92DF92EF92B0
:10048000FF920F931F93CF93DF936C017A018B013F
:10049000C0E0D0E0CE15DF0589F0D8016D918D0167
:1004A000D601ED91FC910190F081E02DC6010995F6
:1004B000892B11F47E0102C02196ECCFC701DF9198
:1004C000CF911F910F91FF90EF90DF90CF90089503
:1004D000FC01918D828D981761F0828DDF01A80F4C
:1004E000B11D5D968C91928D9F5F9F73928F90E06E
:1004F00008958FEF9FEF0895FC01918D828D9817DD
:1005000031F0828DE80FF11D858D90E008958FEF19
:100510009FEF0895FC01918D228D892F90E0805CE2
:100520009F4F821B91098F739927089585EE91E063
:100530000E948A0221E0892B09F420E0822F08958D
:10054000FC01848DDF01A80FB11DA35ABF4F2C9170
:10055000848D90E001968F739927848FA689B7893F
:100560002C93A089B1898C9180648C93938D848D18
:10057000981306C00288F389E02D80818F7D8083E7
:100580000895EF92FF920F931F93CF93DF93EC01A7
:1005900081E0888F9B8D8C8D981305C0E889F9893F
:1005A000808185FD24C0F62E0B8D10E00F5F1F4F5C
:1005B0000F731127E02E8C8DE8120CC00FB607FCCC
:1005C000FACFE889F989808185FFF5CFCE010E94B5
:1005D000A002F1CF8B8DFE01E80FF11DE35AFF4F12
:1005E000F0820B8FEA89FB898081806207C0EE89E7
:1005F000FF896083E889F98980818064808381E054
:1006000090E0DF91CF911F910F91FF90EF900895AF
:10061000CF93DF93EC01888D8823C9F0EA89FB89A9
:10062000808185FD05C0A889B9898C9186FD0FC0A0
:100630000FB607FCF5CF808185FFF2CFA889B98975
:100640008C9185FFEDCFCE010E94A002E7CFDF9114
:10065000CF91089580E090E0892B29F00E949602C6
:1006600081110C9400000895009769F0FC0101903D
:100670000020E9F73197AF01481B590BBC0185EE0B
:1006800091E00C943D0280E090E00895CF93DF93D9
:100690000E943403EC0180E191E00E9434038C0F4E
:1006A0009D1FDF91CF9108958F929F92AF92BF923D
:1006B0000F931F93CF93DF93CDB7DEB7A1970FB6FC
:1006C000F894DEBF0FBECDBF19A2423008F44AE055
:1006D0008E010F5D1F4F842E912CA12CB12CA501F2
:1006E00094010E948509E62FB901CA010150110940
:1006F000EA3014F4E05D01C0E95CD801EC93232BEF
:10070000242B252B61F7C8010E943403A1960FB654
:10071000F894DEBF0FBECDBFDF91CF911F910F9137
:10072000BF90AF909F908F9008958F929F92AF92BD
:10073000BF92CF92DF92EF92FF92CF93DF936B0144
:100740007C019B01AC010E948009882319F083E1A0
:1007500091E027C046015701E894B7F82FEF3FEF2B
:100760004FE75FE7C501B4010E94800981110DC008
:100770002FEF3FEF4FE75FE7C501B4010E94280864
:1007800018161CF487E191E00CC02FEF3FEF4FE704
:100790005FE4C701B6010E940E09181674F48BE1DC
:1007A00091E0DF91CF91FF90EF90DF90CF90BF90DD
:1007B000AF909F908F900C9434032FEF3FEF4FE753
:1007C0005FECC701B6010E94280887FDE8CF20E052
:1007D00030E0A901C701B6010E94280887FF11C0B7
:1007E000E091E501F091E6010190F081E02D6DE2EC
:1007F00085EE91E00995EC01F7FAF094F7F8F094A2
:1008000002C0C0E0D0E02AE037ED43EA5BE3C70175
:10081000B6010E94BC074B015C010E942D086B01D0
:100820007C010E945C089B01AC01C501B4010E94DF
:10083000BB074B015C014AE0C701B6010E945403AB
:10084000C80FD91FE091E501F091E6010190F08118
:10085000E02D6EE285EE91E00995C80FD91F20E0EA
:1008600030E040E251E4C501B4010E9413094B019C
:100870005C010E942D086B01E12CF12C4AE0C701BC
:10088000B6010E945403C80FD91FC701B6010E94C8
:100890005C089B01AC01C501B4010E94BB0720E0CC
:1008A00030E040E251E40E9413090E942D0880E0EC
:1008B00090E04AE00E9454038C0F9D1FDF91CF917E
:1008C000FF90EF90DF90CF90BF90AF909F908F9070
:1008D00008950E94AD091F920F920FB60F92112436
:1008E0002F933F938F939F93AF93BF938091DD019D
:1008F0009091DE01A091DF01B091E0013091DC0127
:1009000023E0230F2D3720F40196A11DB11D05C052
:1009100026E8230F0296A11DB11D2093DC018093D0
:10092000DD019093DE01A093DF01B093E00180919F
:10093000E1019091E201A091E301B091E4010196FF
:10094000A11DB11D8093E1019093E201A093E30109
:10095000B093E401BF91AF919F918F913F912F91FF
:100960000F900FBE0F901F9018951F920F920FB609
:100970000F9211242F933F934F935F936F937F9325
:100980008F939F93AF93BF93EF93FF9385EE91E087
:100990000E94A002FF91EF91BF91AF919F918F9123
:1009A0007F916F915F914F913F912F910F900FBE6B
:1009B0000F901F9018951F920F920FB60F9211244F
:1009C0002F938F939F93EF93FF93E091F501F09115
:1009D000F6018081E091FB01F091FC0182FD12C0E3
:1009E00090818091FE018F5F8F732091FF018217AC
:1009F00051F0E091FE01F0E0EB51FE4F958F8093B6
:100A0000FE0101C08081FF91EF919F918F912F9105
:100A10000F900FBE0F901F901895CF93DF931092F9
:100A2000E8011092E70188EE93E0A0E0B0E0809347
:100A3000E9019093EA01A093EB01B093EC0184E00B
:100A400091E09093E6018093E50185EC90E090932E
:100A5000F2018093F10184EC90E09093F401809393
:100A6000F30180EC90E09093F6018093F50181EC26
:100A700090E09093F8018093F70182EC90E09093DE
:100A8000FA018093F90186EC90E09093FC01809349
:100A9000FB011092FE011092FF01109200021092D1
:100AA0000102E4EAF1E02491E0E9F1E08491882395
:100AB000C1F090E0880F991FFC01EE58FE4FC591E0
:100AC000D491FC01E859FE4FA591B4919FB7F894D9
:100AD0008881E22FE0958E2388838C91E823EC9324
:100AE0009FBFE4EAF1E0E491E0938202E0E9F1E003
:100AF000E491F0E0EE0FFF1FE458FE4F85919491D2
:100B0000909384028093830210928D0210928F0240
:100B100010928E02EDE8F2E0129282E0E538F807DA
:100B2000D9F7DF91CF910895CF93DF93CDB7DEB79B
:100B300066970FB6F894DEBF0FBECDBF789484B52C
:100B4000826084BD84B5816084BD85B5826085BDC9
:100B500085B5816085BD80916E00816080936E0057
:100B60001092810080918100826080938100809149
:100B700081008160809381008091800081608093FA
:100B800080008091B10084608093B1008091B000BA
:100B900081608093B00080917A00846080937A00B5
:100BA00080917A00826080937A0080917A008160DF
:100BB00080937A0080917A00806880937A00109206
:100BC000C100E091F501F091F60182E08083E091AF
:100BD000F101F091F2011082E091F301F091F40142
:100BE0008FEC80831092FD01E091F901F091FA0100
:100BF00086E08083E091F701F091F80180818061C7
:100C00008083E091F701F091F80180818860808312
:100C1000E091F701F091F801808180688083E09194
:100C2000F701F091F80180818F7D80838E01035F51
:100C30001F4F4E0185E1880E911C97E0900F9D8B10
:100C4000DE0111967D0158E0652E6A0E80918F02BB
:100C5000811104C00E94A701811117C010928D025A
:100C600010928F0210928E028FE191E00E94460353
:100C700080E191E00E94340310928D0210928F0265
:100C800010928E02EDE8F2E057C080EF0E94590109
:100C9000CC24C394B12CA12CDD24D3940E94020156
:100CA0008E8B0E9402019E89913019F48130D1F41B
:100CB00037C0EB2DF0E098131FC080918D02D8163D
:100CC00040F4DF01AE57BD4F13968C918C2151F447
:100CD00002C0D81639F090E0B8E0BD1560F0D092AF
:100CE0008E0209C0EB2DF0E0EE57FD4F83818C2979
:100CF000838391E008C0AD2CEE57FD4F23818C2DEE
:100D0000809582238383892F0E942701D394CC0C62
:100D100019F4B394CC24C394E7E0EB1508F0BECFEC
:100D2000F0E4FD1508F09ACFA0928D02A1101AC030
:100D300081E080938F0216C0129282E0E538F807B6
:100D4000D9F76AEF70E080E090E00E94030207C0EC
:100D50008C89E817D1F182E391E00E9446030E945A
:100D60002A0374CF80918502882309F477CFA5E800
:100D7000B2E05801F8018D918193E815F905D9F792
:100D800085ED91E00E943403680188E0582E500EF2
:100D900060E285EE91E00E94C102D6016D916D0185
:100DA00070E080E090E040E10E9454035C10F0CFDE
:100DB000E0E0BD89BA1561F2D5018D915D01E827AA
:100DC000F0E0E859FF4FE491F4CF80E191E00E9418
:100DD00034038D85823271F0883249F0803181F49C
:100DE00084E491E00E944603552453940CC085E5A9
:100DF00091E002C086E691E00E944603512C03C0B8
:100E000086E791E0AACF0E94A701C8010E94830152
:100E100084E40E94590168EE73E080E090E00E9453
:100E200003020E94A701D82EC8010E9483018EEB05
:100E30000E9459018DE991E00E9434036D2D70E00C
:100E400080E090E040E10E94540387EC91E00E9432
:100E500034036701570149E0442E4E0C38E0232E3D
:100E6000312C91E0712C9E8B0E9402019E89811190
:100E7000792A990FE1E02E1A3108A9F7D5017D9260
:100E80005D01672D70E080E090E040E10E94540336
:100E900087EC91E00E9434034A10E0CF87EA91E0AA
:100EA0000E943403E0E06C1449F0D6016D916D01AD
:100EB000E627F0E0E859FF4FE491F5CF6E2F70E0A0
:100EC00080E090E040E10E94540380E191E00E94C4
:100ED00034036A8170E0762F66278981682B55205C
:100EE00089F093E0660F771F9A95E1F78885803146
:100EF000A9F42F818CE090E0821B9109607F680F3C
:100F0000791F0CC08D81807611F4687F07C0803214
:100F100011F46C7F03C0803409F46E7F072E000C3F
:100F2000880B990B0E945E0820E030E040E85DE30A
:100F30000E9413095B016C018DEA91E00E94340369
:100F4000C601B5010E9495038EEB91E00E94340327
:100F500026E636E646EE5FE3C601B5010E941309B8
:100F600020E030E040E052E40E94BC070E9495037C
:100F700089EC91E0F2CE5058BB27AA270E94D307F4
:100F80000C94D4080E94C60838F00E94CD0820F0C6
:100F900039F49F3F19F426F40C94C3080EF4E0953D
:100FA000E7FB0C94BD08E92F0E94E50858F3BA1737
:100FB000620773078407950720F079F4A6F50C946F
:100FC00007090EF4E0950B2EBA2FA02D0B01B901E5
:100FD00090010C01CA01A0011124FF27591B99F0AF
:100FE000593F50F4503E68F11A16F040A22F232FBB
:100FF000342F4427585FF3CF469537952795A7950B
:10100000F0405395C9F77EF41F16BA0B620B730BB1
:10101000840BBAF09150A1F0FF0FBB1F661F771F22
:10102000881FC2F70EC0BA0F621F731F841F48F4D7
:10103000879577956795B795F7959E3F08F0B0CF60
:101040009395880F08F09927EE0F97958795089547
:101050000E94990808F481E008950E94ED0888F044
:101060009F5798F0B92F9927B751B0F0E1F0660F6C
:10107000771F881F991F1AF0BA95C9F714C0B130AD
:1010800091F00E940709B1E008950C940709672FB9
:10109000782F8827B85F39F0B93FCCF386957795DC
:1010A0006795B395D9F73EF49095809570956195C5
:1010B0007F4F8F4F9F4F0895E89409C097FB3EF4F0
:1010C00090958095709561957F4F8F4F9F4F992395
:1010D000A9F0F92F96E9BB279395F6958795779513
:1010E0006795B795F111F8CFFAF4BB0F11F460FFD3
:1010F0001BC06F5F7F4F8F4F9F4F16C0882311F02B
:1011000096E911C0772321F09EE8872F762F05C03E
:10111000662371F096E8862F70E060E02AF09A95D9
:10112000660F771F881FDAF7880F9695879597F9CE
:101130000895990F0008550FAA0BE0E8FEEF161668
:101140001706E807F907C0F012161306E407F507BB
:1011500098F0621B730B840B950B39F40A2661F02F
:10116000232B242B252B21F408950A2609F4A140D2
:10117000A6958FEF811D811D089597F99F6780E8DF
:1011800070E060E008959FEF80EC089500240A94D9
:101190001616170618060906089500240A94121652
:1011A0001306140605060895092E0394000C11F485
:1011B000882352F0BB0F40F4BF2B11F460FF04C032
:1011C0006F5F7F4F8F4F9F4F089557FD9058440F8B
:1011D000551F59F05F3F71F04795880F97FB991F96
:1011E00061F09F3F79F08795089512161306140653
:1011F000551FF2CF4695F1DF08C0161617061806E0
:10120000991FF1CF86957105610508940895E894BA
:10121000BB2766277727CB0197F908950E94990885
:1012200008F48FEF08950E9426090C94D4080E94B8
:10123000C60838F00E94CD0820F0952311F00C94D8
:10124000BD080C94C30811240C9408090E94E508F9
:1012500070F3959FC1F3950F50E0551F629FF00109
:10126000729FBB27F00DB11D639FAA27F00DB11D22
:10127000AA1F649F6627B00DA11D661F829F2227AB
:10128000B00DA11D621F739FB00DA11D621F839F32
:10129000A00D611D221F749F3327A00D611D231F08
:1012A000849F600D211D822F762F6A2F11249F5756
:1012B00050409AF0F1F088234AF0EE0FFF1FBB1F59
:1012C000661F771F881F91505040A9F79E3F510518
:1012D00080F00C94BD080C9408095F3FE4F3983E3D
:1012E000D4F3869577956795B795F795E7959F5FC2
:1012F000C1F7FE2B880F911D9695879597F9089554
:101300000E949908880B990B0895A1E21A2EAA1B36
:10131000BB1BFD010DC0AA1FBB1FEE1FFF1FA217A5
:10132000B307E407F50720F0A21BB30BE40BF50BA2
:10133000661F771F881F991F1A9469F7609570952B
:10134000809590959B01AC01BD01CF010895EE0FF2
:10135000FF1F0590F491E02D099481E090E0F8944E
:081360000C94B209F894FFCFD0
:1013680000000000C1023D028A0268027C020803F4
:101378000D0A006E616E00696E66006F7666004E3B
:101388006F206D6F72652061646472657373657335
:101398002E00435243206973206E6F742076616C6F
:1013A80069642100202043686970203D204453313E
:1013B8003853323000202043686970203D20445360
:1013C800313842323000202043686970203D204483
:1013D8005331383232004465766963652069732079
:1013E8006E6F742061204453313878323020666142
:1013F8006D696C79206465766963652E00202044E8
:10140800617461203D2000204352433D0020205458
:10141800656D7065726174757265203D20002043AA
:10142800656C736975732C20002046616872656E5F
:0C1438006865697400524F4D203D0000B3
:00000001FF
