:100000000C9453000C942B020C9404020C947B006F
:100010000C947B000C947B000C947B000C947B0074
:100020000C947B000C947B000C947B000C947B0064
:100030000C947B000C947B000C947B000C947B0054
:100040000C94BA010C947B000C9478020C9452022C
:100050000C947B000C947B000C947B000C947B0034
:100060000C947B000C947B0000000000250028000D
:100070002B0000000000240027002A0004040404D0
:100080000404040402020202020203030303030342
:10009000010204081020408001020408102001021F
:1000A00004081020600411241FBECFEFD8E0DEBF8B
:1000B000CDBF21E0A0E3B1E001C01D92A23EB20796
:1000C000E1F711E0A0E0B1E0E8E7F0E102C005905F
:1000D0000D92A033B107D9F710E0C3E5D0E004C01A
:1000E0002197FE010E942806C235D107C9F70E9458
:1000F000AA020C943A080C9400000895CF92DF9263
:10010000EF92FF920F931F93CF93DF936C017A01CD
:100110008B01C0E0D0E0CE15DF0589F0D8016D91EC
:100120008D01D601ED91FC910190F081E02DC60189
:100130000995892B11F47E0102C02196ECCFC701ED
:10014000DF91CF911F910F91FF90EF90DF90CF90B3
:1001500008958091CF019091D00101969093D001A4
:100160008093CF010895FC01918D828D981761F0E5
:10017000828DDF01A80FB11D5D968C91928D9F5FDE
:100180009F73928F90E008958FEF9FEF0895FC0189
:10019000918D828D981731F0828DE80FF11D858D3C
:1001A00090E008958FEF9FEF0895FC01918D228DCF
:1001B000892F90E0805C9F4F821B91098F73992754
:1001C000089581E391E00E94D50021E0892B09F494
:1001D00020E0822F0895FC01848DDF01A80FB11D5E
:1001E000A35ABF4F2C91848D90E001968F7399276D
:1001F000848FA689B7892C93A089B1898C9180645A
:100200008C93938D848D981306C00288F389E02D1A
:1002100080818F7D80830895EF92FF920F931F93CB
:10022000CF93DF93EC0181E0888F9B8D8C8D9813A9
:1002300005C0E889F989808185FD24C0F62E0B8DE3
:1002400010E00F5F1F4F0F731127E02E8C8DE81207
:100250000CC00FB607FCFACFE889F989808185FFC9
:10026000F5CFCE010E94EB00F1CF8B8DFE01E80FA0
:10027000F11DE35AFF4FF0820B8FEA89FB898081E1
:10028000806207C0EE89FF896083E889F9898081EF
:100290008064808381E090E0DF91CF911F910F9186
:1002A000FF90EF900895CF93DF93EC01888D882322
:1002B000C9F0EA89FB89808185FD05C0A889B989D3
:1002C0008C9186FD0FC00FB607FCF5CF808185FFAE
:1002D000F2CFA889B9898C9185FFEDCFCE010E941C
:1002E000EB00E7CFDF91CF91089580E090E0892B7C
:1002F00029F00E94E10081110C94000008950E94F1
:1003000025080F931F93CF93DF93EC018881998188
:10031000009729F02A813B812617370788F48B0143
:100320006F5F7F4F0E945B07009761F0998388831E
:100330001B830A832C813D81232B11F4FC01108245
:1003400081E001C080E0DF91CF911F910F9108956E
:10035000CF93DF93EC0188819981009711F00E947F
:10036000C306198218821D821C821B821A82DF91A9
:10037000CF9108951F920F920FB60F9211242F93D1
:100380003F938F939F93AF93BF938091DA019091A6
:10039000DB01A091DC01B091DD013091D90123E0B6
:1003A000230F2D3720F40196A11DB11D05C026E8AD
:1003B000230F0296A11DB11D2093D9018093DA016C
:1003C0009093DB01A093DC01B093DD018091D50116
:1003D0009091D601A091D701B091D8010196A11DAD
:1003E000B11D8093D5019093D601A093D701B0930E
:1003F000D801BF91AF919F918F913F912F910F9015
:100400000FBE0F901F9018951F920F920FB60F926C
:1004100011242F933F934F935F936F937F938F9309
:100420009F93AF93BF93EF93FF93E0910201F091FD
:1004300003010995FF91EF91BF91AF919F918F912A
:100440007F916F915F914F913F912F910F900FBED0
:100450000F901F9018951F920F920FB60F921124B4
:100460002F933F934F935F936F937F938F939F93BC
:10047000AF93BF93EF93FF93E0910001F0910101DF
:100480000995FF91EF91BF91AF919F918F917F91CE
:100490006F915F914F913F912F910F900FBE0F90F1
:1004A0001F9018951F920F920FB60F9211242F9341
:1004B0003F934F935F936F937F938F939F93AF93EC
:1004C000BF93EF93FF9381E391E00E94EB00FF91D4
:1004D000EF91BF91AF919F918F917F916F915F91BC
:1004E0004F913F912F910F900FBE0F901F90189535
:1004F0001F920F920FB60F9211242F938F939F93F9
:10050000EF93FF93E0914101F09142018081E091EE
:100510004701F091480182FD12C0908180914A010B
:100520008F5F8F7320914B01821751F0E0914A0148
:10053000F0E0EF5CFE4F958F80934A0101C080810F
:10054000FF91EF919F918F912F910F900FBE0F9080
:100550001F901895CF93DF93CDB7DEB760970FB696
:10056000F894DEBF0FBECDBF789484B5826084BDA1
:1005700084B5816084BD85B5826085BD85B58160A7
:1005800085BD80916E00816080936E001092810025
:1005900080918100826080938100809181008160E0
:1005A00080938100809180008160809380008091A1
:1005B000B10084608093B1008091B000816080932D
:1005C000B00080917A00846080937A0080917A00F4
:1005D000826080937A0080917A00816080937A00B3
:1005E00080917A00806880937A001092C100E09137
:1005F0004101F091420182E08083E0913D01F09160
:100600003E011082E0913F01F09140018FEC808328
:1006100010924901E0914501F091460186E0808306
:10062000E0914301F0914401808180618083E091F9
:100630004301F0914401808188608083E09143010F
:10064000F0914401808180688083E0914301F091C2
:10065000440180818F7D8083E2E9F0E02491EEE720
:10066000F0E084918823C9F090E0880F991FFC0185
:10067000EE58FF4F45915491FC01E859FF4FA59169
:10068000B4919FB7F894FA018081209582238083EA
:100690008C91E22FE823EC939FBF1092300189EAFE
:1006A00090E0909301018093000180916900836044
:1006B00080936900E89A8E01035F1F4F8091D101FA
:1006C0009091D201A091D301B091D40188519C4F57
:1006D000AF4FBF4F2FB7F8944091DA015091DB0133
:1006E0006091DC017091DD012FBF84179507A6078B
:1006F000B70708F4B6C04091D1015091D201609182
:10070000D3017091D4012FB7F8948091DA019091C0
:10071000DB01A091DC01B091DD012FBF84179507AB
:10072000A607B70708F49DC0B090CE0118861F82B7
:100730001A8619861C861B866BE070E0CE01079630
:100740000E948101811105C0CE0107960E94A80177
:100750000AC08BE090E09C878B876AE171E08F8113
:1007600098850E9433081A8219821C821B821E827D
:100770001D82EF80F884E114F104A9F0CB84DC84BD
:10078000B601CE0101960E948101811105C0CE0102
:1007900001960E94A80107C0DE82CD82B70189813F
:1007A0009A810E9433084AE0B8018B2D90E00E94A4
:1007B0008D04F80101900020E9F73197E01BF10B5F
:1007C000ED80FE803097C9F0EE0EFF1EB701CE011E
:1007D00001960E948101882361F029813A818D81EF
:1007E0009E81B801820F931F0E943308FE82ED8222
:1007F00004C0CE0101960E94A801ED80FE80F6E0C3
:10080000EF0EF11CB701CE0101960E9481018823F1
:1008100009F451C029813A818D819E8166E271E09F
:10082000820F931F0E943308FE82ED824D815E810C
:1008300069817A8181E391E00E947E0042E050E08C
:100840006DE271E081E391E00E947E0089819A81EE
:100850000E94C3068F8198850E94C3060E9475017D
:100860002DCF6091CF017091D00180E090E00E9487
:10087000C20420E030E040EF50E40E9487050E946F
:10088000F9056093CE011092D0011092CF012FB7DD
:10089000F8948091DA019091DB01A091DC01B09194
:1008A000DD012FBF8093D1019093D201A093D3019A
:1008B000B093D40139CFCE0101960E94A801B6CFE2
:1008C000E1E3F1E01382128288EE93E0A0E0B0E071
:1008D00084839583A683B7838EE091E091838083A0
:1008E00085EC90E09587848784EC90E097878687F5
:1008F00080EC90E0918B808B81EC90E0938B828BED
:1009000082EC90E0958B848B86EC90E0978B868BC5
:10091000118E128E138E148E0895BB274A3031F437
:10092000992322F4BDE2909581959F4F0C949904F0
:10093000BB27FB015527AA27880F991FAA1FA417B9
:1009400010F0A41B83955051B9F7A05DAA3308F0AD
:10095000A95DA193009779F7B111B1931192CB01E1
:100960000C94B204DC01FC01672F71917723E1F74D
:10097000329704C07C916D9370836291AE17BF076C
:10098000C8F30895E89409C097FB3EF490958095CC
:10099000709561957F4F8F4F9F4F9923A9F0F92F45
:1009A00096E9BB279395F695879577956795B795C3
:1009B000F111F8CFFAF4BB0F11F460FF1BC06F5FA9
:1009C0007F4F8F4F9F4F16C0882311F096E911C0BB
:1009D000772321F09EE8872F762F05C0662371F0DC
:1009E00096E8862F70E060E02AF09A95660F771FF0
:1009F000881FDAF7880F9695879597F9089597F9E4
:100A00009F6780E870E060E008959FEF80EC0895B4
:100A100000240A94161617061806090608950024DD
:100A20000A9412161306140605060895092E039457
:100A3000000C11F4882352F0BB0F40F4BF2B11F4CB
:100A400060FF04C06F5F7F4F8F4F9F4F089557FD2A
:100A50009058440F551F59F05F3F71F04795880F2C
:100A600097FB991F61F09F3F79F0879508951216C3
:100A700013061406551FF2CF4695F1DF08C016166F
:100A800017061806991FF1CF869571056105089420
:100A90000895E894BB2766277727CB0197F9089537
:100AA0002F923F924F925F926F927F928F929F927E
:100AB000AF92BF92CF92DF92EF92FF920F931F936C
:100AC000CF93DF93CDB7DEB7CA1BDB0B0FB6F8941D
:100AD000DEBF0FBECDBF09942A88398848885F845D
:100AE0006E847D848C849B84AA84B984C884DF80CE
:100AF000EE80FD800C811B81AA81B981CE0FD11DB2
:100B00000FB6F894DEBF0FBECDBFED0108950E9471
:100B10009B050C9416050E940F0558F00E940805CD
:100B200040F029F45F3F29F00C94FF0451110C941C
:100B30004A050C9405050E94270568F39923B1F333
:100B4000552391F3951B550BBB27AA2762177307F3
:100B5000840738F09F5F5F4F220F331F441FAA1F87
:100B6000A9F335D00E2E3AF0E0E832D09150504043
:100B7000E695001CCAF72BD0FE2F29D0660F771FF1
:100B8000881FBB1F261737074807AB07B0E809F0D7
:100B9000BB0B802DBF01FF2793585F4F3AF09E3F5C
:100BA000510578F00C94FF040C944A055F3FE4F380
:100BB000983ED4F3869577956795B795F7959F5F9F
:100BC000C9F7880F911D9695879597F90895E1E0EB
:100BD000660F771F881FBB1F621773078407BA074A
:100BE00020F0621B730B840BBA0BEE1F88F7E095A5
:100BF00008950E942F0588F09F5798F0B92F9927E4
:100C0000B751B0F0E1F0660F771F881F991F1AF0F7
:100C1000BA95C9F714C0B13091F00E944905B1E00E
:100C200008950C944905672F782F8827B85F39F00D
:100C3000B93FCCF3869577956795B395D9F73EF490
:100C400090958095709561957F4F8F4F9F4F089538
:100C5000EE0FFF1F0590F491E02D0994CF93DF93E1
:100C60008230910510F482E090E0E091E001F09193
:100C7000E10120E030E0C0E0D0E0309711F14081A8
:100C8000518148175907C0F04817590761F482810C
:100C90009381209719F09B838A832BC09093E10165
:100CA0008093E00126C02115310519F04217530742
:100CB00018F49A01BE01DF01EF010280F381E02DFB
:100CC000DCCF2115310509F1281B390B2430310502
:100CD00090F412968D919C9113976115710521F0F6
:100CE000FB019383828304C09093E1018093E00130
:100CF000FD01329644C0FD01E20FF31F81939193F1
:100D0000225031092D933C933AC02091DE0130915D
:100D1000DF01232B41F4209106013091070130932C
:100D2000DF012093DE01209104013091050121159E
:100D3000310541F42DB73EB74091080150910901AA
:100D4000241B350BE091DE01F091DF01E217F30780
:100D5000A0F42E1B3F0B2817390778F0AC014E5F2B
:100D60005F4F2417350748F04E0F5F1F5093DF0188
:100D70004093DE018193919302C0E0E0F0E0CF0167
:100D8000DF91CF9108950F931F93CF93DF93009737
:100D900009F48CC0FC013297138212820091E001A9
:100DA0001091E1010115110581F420813181820F3B
:100DB000931F2091DE013091DF012817390779F563
:100DC000F093DF01E093DE0171C0D80140E050E014
:100DD000AE17BF0750F412962D913C911397AD01B9
:100DE0002115310509F1D901F3CF9D01DA013383D2
:100DF000228360817181860F971F8217930769F4A0
:100E0000EC0128813981260F371F2E5F3F4F318338
:100E100020838A819B8193838283452B29F4F093DD
:100E2000E101E093E00142C01396FC93EE93129728
:100E3000ED01499159919E01240F351FE217F307E7
:100E400071F480819181840F951F029611969C9375
:100E50008E938281938113969C938E931297E0E0F8
:100E6000F0E0D80112968D919C911397009719F09C
:100E7000F8018C01F6CF8D919C9198012E5F3F4F28
:100E8000820F931F2091DE013091DF01281739076F
:100E900069F4309729F41092E1011092E00102C048
:100EA000138212821093DF010093DE01DF91CF9154
:100EB0001F910F910895A0E0B0E0E1E6F7E00C94F7
:100EC0005405EC01009721F4CB010E942E06B8C016
:100ED000FC01E60FF71F9C0122503109E217F307CE
:100EE00008F4ACC0D9010D911C9111970617170792
:100EF000B0F00530110508F49FC0C80104978617AB
:100F0000970708F499C002501109061B170B0193AB
:100F100011936D937C93CF010E94C3068DC05B013A
:100F2000A01AB10A4C01800E911EA091E001B0916F
:100F3000E10140E050E0E12CF12C109709F44AC0A7
:100F4000A815B905D1F56D907C901197630182E0E9
:100F5000C80ED11CCA14DB0480F1A3014A195B0935
:100F60006A0182E0C80ED11C1296BC9012971396AB
:100F7000AC91B5E0CB16D10440F0B282A38351838B
:100F80004083D9016D937C930AC00E5F1F4FC3014C
:100F9000800F911FF90191838083EB2DFA2FE114CB
:100FA000F10431F0D7011396FC93EE93129744C0ED
:100FB000F093E101E093E0013FC08D919C91119786
:100FC0004817590708F4AC017D0112960D90BC91A9
:100FD000A02DB3CF8091DE019091DF018815990596
:100FE000E1F446175707C8F4809104019091050178
:100FF000009741F48DB79EB74091080150910901C7
:10100000841B950BE817F907C8F4F093DF01E09310
:10101000DE01F901718360830FC0CB010E942E06AF
:101020007C01009759F0A801BE010E942A08CE0158
:101030000E94C306C70104C0CE0102C080E090E058
:10104000CDB7DEB7EEE00C94700581E090E0F89447
:101050000C943A08FB01DC0102C001900D92415052
:101060005040D8F70895FB01DC0101900D9200205B
:08107000E1F70895F894FFCFA9
:101078007D007D000000E2018000000000000C01FE
:101088007E00D500B300C7005301434B4F504F4378
:101098005462203D2000204C2F4D494E000D0A007F
:00000001FF
