:100000000C94D8000C9400010C9400010C94000195
:100010000C9400010C9400010C9400010C9400015C
:100020000C9400010C9400010C9400010C9400014C
:100030000C9400010C9400010C9400010C9400013C
:100040000C9489030C9400010C94F9030C94D303D1
:100050000C9400010C9400010C9400010C9400011C
:100060000C9400010C940001005EBCE2613FDD8352
:10007000C29C7E20A3FD1F419DC3217FFCA2401E88
:100080005F01E3BD3E6082DC237D9FC1421CFEA078
:10009000E1BF5D0380DE3C62BEE0025CDF81633D68
:1000A0007C22C09E1D43A1FF4618FAA427799BC558
:1000B00084DA3866E5BB5907DB856739BAE4065848
:1000C0001947A5FB7826C49A653BD987045AB8E638
:1000D000A7F91B45C6987A24F8A6441A99C7257B28
:1000E0003A6486D85B05E7B98CD2306EEDB3510F18
:1000F0004E10F2AC2F7193CD114FADF3702ECC9208
:10010000D38D6F31B2EC0E50AFF1134DCE90722CF7
:100110006D33D18F0C52B0EE326C8ED0530DEFB1E7
:10012000F0AE4C1291CF2D73CA947628ABF51749D7
:100130000856B4EA6937D58B5709EBB536688AD4C7
:1001400095CB2977F4AA4816E9B7550B88D6346AB7
:100150002B7597C94A14F6A8742AC896154BA9F7A7
:10016000B6E80A54D7896B35000000002500280046
:100170002B0000000000240027002A0000000000DF
:1001800023002600290004040404040404040202D9
:100190000202020203030303030301020408102006
:1001A00040800102040810200102040810202B04E2
:1001B00011241FBECFEFD8E0DEBFCDBF11E0A0E01D
:1001C000B1E0E2E2F2E102C005900D92A037B10782
:1001D000D9F722E0A0E7B1E001C01D92A432B20736
:1001E000E1F710E0C8EDD0E004C02197FE010E94C5
:1001F0000409C73DD107C9F70E94B2040C940F0946
:100200000C94000080911602E0911702F091180200
:10021000F8949181982B91832281982F909529238E
:100220002283A7E0B0E01197F1F721819223918317
:10023000A3E2B0E01197F1F790817894EFECF0E051
:100240003197F1F7982381E009F480E008959091C7
:100250001602E0911702F0911802392F309580FFB5
:1002600013C0F8942281832F822382838181892B7A
:100270008183A3E2B0E01197F1F78281982B9283FA
:10028000789487ED90E012C0F8942281832F822326
:1002900082838181892B8183AFEFB0E01197F1F7E1
:1002A0008281982B928378948FE090E00197F1F708
:1002B00008950F931F93CF93DF93082FC8E0D0E0EA
:1002C00011E081E0912F902309F480E00E94270142
:1002D000110F2197B1F7F894E0911702F0911802ED
:1002E000918180911602809598239183E091170265
:1002F000F09118029281892382837894DF91CF91C3
:100300001F910F910895EF92FF920F931F93CF9338
:10031000DF931F92CDB7DEB7182F85E599830E9432
:100320005901E12E9981F92E8701085F1F4FF701CE
:1003300081917F010E945901E016F106C1F70F90EB
:10034000DF91CF911F910F91FF90EF9008959091C1
:100350001602E0911702F0911802F8948181292F7A
:1003600020958223818378948DE743E050E081508B
:1003700021F1DA011197F1F730813923C1F3F894B3
:100380008281822382838181892B81837894ABE768
:10039000B7E01197F1F7F894818128232183A3E135
:1003A000B1E01197F1F78081982381E009F080E0B6
:1003B0007894E3E6F6E03197F1F708953FB7F894C3
:1003C0008091750190917601A0917701B0917801AB
:1003D00026B5A89B05C02F3F19F00196A11DB11DA0
:1003E0003FBFBA2FA92F982F8827820F911DA11DDB
:1003F000B11DBC01CD0142E0660F771F881F991F18
:100400004A95D1F708958F929F92AF92BF92CF9263
:10041000DF92EF92FF926B017C010E94DE014B01A3
:100420005C01C114D104E104F104F1F00E94DE0189
:10043000DC01CB0188199909AA09BB09883E9340C0
:10044000A105B10570F321E0C21AD108E108F10855
:1004500088EE880E83E0981EA11CB11CC114D10443
:10046000E104F10419F7DDCFFF90EF90DF90CF901A
:10047000BF90AF909F908F900895CF92DF92EF92B0
:10048000FF920F931F93CF93DF936C017A018B013F
:10049000C0E0D0E0CE15DF0589F0D8016D918D0167
:1004A000D601ED91FC910190F081E02DC6010995F6
:1004B000892B11F47E0102C02196ECCFC701DF9198
:1004C000CF911F910F91FF90EF90DF90CF90089503
:1004D000FC01918D828D981761F0828DDF01A80F4C
:1004E000B11D5D968C91928D9F5F9F73928F90E06E
:1004F00008958FEF9FEF0895FC01918D828D9817DD
:1005000031F0828DE80FF11D858D90E008958FEF19
:100510009FEF0895FC01918D228D892F90E0805CE2
:100520009F4F821B91098F739927089589E791E066
:100530000E948A0221E0892B09F420E0822F08958D
:10054000FC01848DDF01A80FB11DA35ABF4F2C9170
:10055000848D90E001968F739927848FA689B7893F
:100560002C93A089B1898C9180648C93938D848D18
:10057000981306C00288F389E02D80818F7D8083E7
:100580000895EF92FF920F931F93CF93DF93EC01A7
:1005900081E0888F9B8D8C8D981305C0E889F9893F
:1005A000808185FD24C0F62E0B8D10E00F5F1F4F5C
:1005B0000F731127E02E8C8DE8120CC00FB607FCCC
:1005C000FACFE889F989808185FFF5CFCE010E94B5
:1005D000A002F1CF8B8DFE01E80FF11DE35AFF4F12
:1005E000F0820B8FEA89FB898081806207C0EE89E7
:1005F000FF896083E889F98980818064808381E054
:1006000090E0DF91CF911F910F91FF90EF900895AF
:10061000CF93DF93EC01888D8823C9F0EA89FB89A9
:10062000808185FD05C0A889B9898C9186FD0FC0A0
:100630000FB607FCF5CF808185FFF2CFA889B98975
:100640008C9185FFEDCFCE010E94A002E7CFDF9114
:10065000CF91089580E090E0892B29F00E949602C6
:1006600081110C9400000895009769F0FC0101903D
:100670000020E9F73197AF01481B590BBC0189E70E
:1006800091E00C943D0280E090E008958F929F925B
:10069000AF92BF920F931F93CF93DF93CDB7DEB787
:1006A000A1970FB6F894DEBF0FBECDBF19A242309E
:1006B00008F44AE08E010F5D1F4F842E912CA12C6F
:1006C000B12CA50194010E94E208E62FB901CA01EC
:1006D00001501109EA3014F4E05D01C0E95CD80171
:1006E000EC93232B242B252B61F7C8010E943403A4
:1006F000A1960FB6F894DEBF0FBECDBFDF91CF91AC
:100700001F910F91BF90AF909F908F9008950E947E
:100710000A091F920F920FB60F9211242F933F9345
:100720008F939F93AF93BF938091710190917201CA
:10073000A0917301B09174013091700123E0230FF7
:100740002D3720F40196A11DB11D05C026E8230F09
:100750000296A11DB11D20937001809371019093A9
:100760007201A0937301B09374018091750190910F
:100770007601A0917701B09178010196A11DB11D7C
:100780008093750190937601A0937701B0937801DF
:10079000BF91AF919F918F913F912F910F900FBE7D
:1007A0000F901F9018951F920F920FB60F92112461
:1007B0002F933F934F935F936F937F938F939F9369
:1007C000AF93BF93EF93FF9389E791E00E94A0025C
:1007D000FF91EF91BF91AF919F918F917F916F9119
:1007E0005F914F913F912F910F900FBE0F901F90EF
:1007F00018951F920F920FB60F9211242F938F937B
:100800009F93EF93FF93E0918901F0918A0180819A
:10081000E0918F01F091900182FD12C09081809152
:1008200092018F5F8F7320919301821751F0E091B5
:100830009201F0E0E758FE4F958F8093920101C03E
:100840008081FF91EF919F918F912F910F900FBE1B
:100850000F901F901895CF93DF9310927C01109208
:100860007B0188EE93E0A0E0B0E080937D0190935F
:100870007E01A0937F01B093800184E091E090938A
:100880007A018093790185EC90E0909386018093C2
:10089000850184EC90E0909388018093870180EC3F
:1008A00090E090938A018093890181EC90E090938D
:1008B0008C0180938B0182EC90E090938E01809369
:1008C0008D0186EC90E09093900180938F011092BF
:1008D0009201109293011092940110929501E4EA12
:1008E000F1E02491E0E9F1E084918823C1F090E007
:1008F000880F991FFC01EE58FE4FC591D491FC0161
:10090000E859FE4FA591B4919FB7F8948881E22FE2
:10091000E0958E2388838C91E823EC939FBFE4EAD3
:10092000F1E0E491E0931602E0E9F1E0E491F0E017
:10093000EE0FFF1FE458FE4F85919491909318029B
:100940008093170210922102109223021092220229
:10095000E1E2F2E0129282E0E931F807D9F7DF91A3
:10096000CF910895CF93DF93CDB7DEB76A970FB6D7
:10097000F894DEBF0FBECDBF789484B5826084BD8D
:1009800084B5816084BD85B5826085BD85B5816093
:1009900085BD80916E00816080936E001092810011
:1009A00080918100826080938100809181008160CC
:1009B000809381008091800081608093800080918D
:1009C000B10084608093B1008091B0008160809319
:1009D000B00080917A00846080937A0080917A00E0
:1009E000826080937A0080917A00816080937A009F
:1009F00080917A00806880937A001092C100E09123
:100A00008901F0918A0182E08083E0918501F09173
:100A100086011082E0918701F09188018FEC80833C
:100A200010929101E0918D01F0918E0186E080831A
:100A3000E0918B01F0918C01808180618083E09155
:100A40008B01F0918C01808188608083E0918B0123
:100A5000F0918C01808180688083E0918B01F0911E
:100A60008C0180818F7D80838E01035F1F4F1E016B
:100A700085E1280E311C98E0900F9F8BA7E0A00F16
:100A8000A88FFE013196FE8BED8BE75FE98F809199
:100A90002302811104C00E94A70181111BC0109282
:100AA0002102109223021092220280E191E00E9422
:100AB000340383E291E00E94340383E291E00E94D8
:100AC0003403109221021092230210922202E1E2DA
:100AD000F2E057C080EF0E945901EE24E394D12C3C
:100AE000C12CFF24F3940E9402018A8F0E9402010C
:100AF0009A8D913019F48130D1F437C0ED2DF0E0AA
:100B000098131FC080912102F81640F4DF01AA5EFD
:100B1000BD4F13968C918E2151F402C0F81639F016
:100B200090E088E08F1560F0F092220209C0ED2D70
:100B3000F0E0EA5EFD4F83818E29838391E008C057
:100B4000CF2CEA5EFD4F23818E2D809582238383F7
:100B5000892F0E942701F394EE0C19F4D394EE240C
:100B6000E39497E09D1508F0BECFA0E4AF1508F020
:100B700096CFC0922102C1101FC081E08093230252
:100B80001BC01292B2E0E931FB07D9F76AEF70E0BF
:100B900080E090E00E9403020CC08C89E81709F401
:100BA0003CC086E291E00E94340383E291E00E941F
:100BB00034030E942A036BCF80911902882309F421
:100BC0006ECFA9E1B2E06801F8018D918193E21541
:100BD000F305D9F78AE691E00E943403780160E2D8
:100BE00089E791E00E94C102F70161917F0170E005
:100BF00080E090E040E10E944603FF89FE11EFCFC4
:100C0000E0E0B88DBC1549F2D6018D916D01E82761
:100C1000F0E0E859FF4FE491F4CF83E291E00E94C5
:100C200034030E94A701C8010E94830184E40E944A
:100C300059016EEE72E080E090E00E9403020E9493
:100C4000A701F82EC8010E9483018EEB0E94590172
:100C500088E391E00E9434036F2D70E080E090E023
:100C600040E10E94460388E691E00E943403FE01C1
:100C700031967F0198E0A92EB12CCC24C394D12CBD
:100C80000E9402018111DC28CC0CF1E0AF1AB108FE
:100C9000B9F7D701DD927D01B98DBE11EBCF6A8125
:100CA00070E0762F66278981682B072E000C880B51
:100CB000990B0E94BB0720E030E040E85DE30E9412
:100CC00070086B017C014B015C0182E491E00E94A1
:100CD0003403A7019601C701B6010E94DD088823ED
:100CE00019F083E591E01AC026013701E89477F8FE
:100CF0002FEF3FEF4FE75FE7C301B2010E94DD082E
:100D000081110FC02FEF3FEF4FE75FE7C301B20143
:100D10000E94850718162CF487E591E00E943403A1
:100D200084C02FEF3FEF4FE75FE4C701B6010E9499
:100D30006B0818161CF48BE591E0F0CF2FEF3FEF16
:100D40004FE75FECC701B6010E94850787FDF3CF2F
:100D500020E030E0A901C701B6010E94850787FFA6
:100D600011C0E0917901F0917A010190F081E02DBC
:100D70006DE289E791E0099546015701B7FAB09411
:100D8000B7F8B0942AE037ED43EA5BE3C501B4015C
:100D90000E9419074B015C010E948A076B017C01CC
:100DA0000E94B9079B01AC01C501B4010E9418075C
:100DB0004B015C014AE0C701B6010E944603E09185
:100DC0007901F0917A010190F081E02D6EE289E7DE
:100DD00091E0099520E030E040E251E4C501B40122
:100DE0000E9470086B017C010E948A074B01A12CB4
:100DF000B12C4AE0C501B4010E944603C501B4010B
:100E00000E94B9079B01AC01C701B6010E941807F7
:100E100020E030E040E251E40E9470080E948A071E
:100E200080E090E04AE00E9446038FE591E0BFCE6B
:100E30005058BB27AA270E9430070C9431080E9403
:100E4000230838F00E942A0820F039F49F3F19F453
:100E500026F40C9420080EF4E095E7FB0C941A0895
:100E6000E92F0E94420858F3BA17620773078407F4
:100E7000950720F079F4A6F50C9464080EF4E0953B
:100E80000B2EBA2FA02D0B01B90190010C01CA0144
:100E9000A0011124FF27591B99F0593F50F4503EEF
:100EA00068F11A16F040A22F232F342F4427585FE1
:100EB000F3CF469537952795A795F0405395C9F7F9
:100EC0007EF41F16BA0B620B730B840BBAF09150B1
:100ED000A1F0FF0FBB1F661F771F881FC2F70EC050
:100EE000BA0F621F731F841F48F487957795679523
:100EF000B795F7959E3F08F0B0CF9395880F08F00F
:100F00009927EE0F9795879508950E94F60708F4A4
:100F100081E008950E944A0888F09F5798F0B92F01
:100F20009927B751B0F0E1F0660F771F881F991F1E
:100F30001AF0BA95C9F714C0B13091F00E94640854
:100F4000B1E008950C946408672F782F8827B85F64
:100F500039F0B93FCCF3869577956795B395D9F776
:100F60003EF490958095709561957F4F8F4F9F4F80
:100F70000895E89409C097FB3EF49095809570958C
:100F800061957F4F8F4F9F4F9923A9F0F92F96E9D5
:100F9000BB279395F695879577956795B795F1114A
:100FA000F8CFFAF4BB0F11F460FF1BC06F5F7F4FE7
:100FB0008F4F9F4F16C0882311F096E911C07723F9
:100FC00021F09EE8872F762F05C0662371F096E802
:100FD000862F70E060E02AF09A95660F771F881FD1
:100FE000DAF7880F9695879597F90895990F000875
:100FF000550FAA0BE0E8FEEF16161706E807F907EB
:10100000C0F012161306E407F50798F0621B730B85
:10101000840B950B39F40A2661F0232B242B252B06
:1010200021F408950A2609F4A140A6958FEF811DA9
:10103000811D089597F99F6780E870E060E008954A
:101040009FEF80EC089500240A94161617061806E0
:101050000906089500240A941216130614060506BC
:101060000895092E0394000C11F4882352F0BB0F4D
:1010700040F4BF2B11F460FF04C06F5F7F4F8F4FB0
:101080009F4F089557FD9058440F551F59F05F3FEB
:1010900071F04795880F97FB991F61F09F3F79F09A
:1010A00087950895121613061406551FF2CF46951C
:1010B000F1DF08C0161617061806991FF1CF86959E
:1010C0007105610508940895E894BB276627772782
:1010D000CB0197F908950E94F60708F48FEF089561
:1010E0000E9483080C9431080E94230838F00E9463
:1010F0002A0820F0952311F00C941A080C9420086B
:1011000011240C9465080E94420870F3959FC1F366
:10111000950F50E0551F629FF001729FBB27F00DA5
:10112000B11D639FAA27F00DB11DAA1F649F6627FA
:10113000B00DA11D661F829F2227B00DA11D621F49
:10114000739FB00DA11D621F839FA00D611D221F03
:10115000749F3327A00D611D231F849F600D211DE7
:10116000822F762F6A2F11249F5750409AF0F1F06A
:1011700088234AF0EE0FFF1FBB1F661F771F881FD3
:1011800091505040A9F79E3F510580F00C941A08E9
:101190000C9465085F3FE4F3983ED4F38695779509
:1011A0006795B795F795E7959F5FC1F7FE2B880F79
:1011B000911D9695879597F908950E94F607880BDB
:1011C000990B0895A1E21A2EAA1BBB1BFD010DC0AD
:1011D000AA1FBB1FEE1FFF1FA217B307E407F507E7
:1011E00020F0A21BB30BE40BF50B661F771F881FC3
:1011F000991F1A9469F760957095809590959B0159
:10120000AC01BD01CF010895EE0FFF1F0590F491D1
:10121000E02D099481E090E0F8940C940F09F89483
:02122000FFCFFE
:1012220000000000C1023D028A0268027C0208033B
:101232004E6F206D6F7265206164647265737365B1
:10124200732E000D0A00435243206973206E6F749F
:101252002076616C69642100202044617461203D24
:101262002000202054656D7065726174757265206E
:101272003D20006E616E00696E66006F766600202A
:1012820043656C736975732C2000524F4D203D00ED
:00000001FF
